:020000040800F2
:10000000300C0020BD1B0008C51B0008C71B0008E2
:10001000C91B0008CB1B0008CD1B00080000000016
:10002000000000000000000000000000CF1B0008DE
:10003000D11B000800000000D31B0008D51B0008DE
:10004000D71B0008D71B0008D71B0008D71B0008C8
:10005000D71B0008D71B0008D71B0008D71B0008B8
:10006000D71B0008D71B0008D71B0008D71B0008A8
:10007000D71B0008D71B0008D71B0008D71B000898
:10008000D71B0008D71B0008D71B0008D71B000888
:10009000D71B0008D71B0008D71B0008D71B000878
:1000A000D71B0008D71B0008D71B0008D71B000868
:1000B000D71B0008D71B0008D71B0008D71B000858
:1000C000D71B0008D71B0008D71B0008D71B000848
:1000D000610A0008D71B0008D71B0008D71B0008BF
:1000E000D71B0008D71B0008D71B0008D71B000828
:1000F000D71B0008D71B0008D71B0008D71B000818
:10010000D71B0008D71B0008D71B0008D71B000807
:10011000D71B0008D71B0008D71B0008D71B0008F7
:10012000D71B0008D71B0008D71B0008D71B0008E7
:10013000D71B0008D71B0008D71B0008D71B0008D7
:10014000D71B0008D71B0008D71B0008D71B0008C7
:10015000D71B0008D71B0008D71B0008D71B0008B7
:10016000D71B0008D71B0008D71B0008D71B0008A7
:10017000D71B0008D71B0008D71B0008D71B000897
:10018000D71B0008D71B0008DFF810D001F08EFD48
:1001900000480047B10A0008AFF30080300C00208F
:1001A00070B5FD4B1988C80701D0FC4801E04FF439
:1001B000FA5001F00104C1F340025440C1F3C022DF
:1001C000C1F3403672406240F34D4FF6FF7404EACB
:1001D000410162F300016A60198070BDFEE72DE9FC
:1001E000FE4F00224FEA1068C0F30749C0F3072A08
:1001F00000F0FF0B080ACDE90102E74CC8B24FF44A
:1002000096170090A760E64E4FF4003504E0A06812
:10021000411EA16000D2FEE72946304601F079F880
:100220000028F4D10121304600F097FF4FF48055AB
:10023000A56004E0A068411EA16000D2FEE7D94994
:10024000304601F053F80028F4D000223421304623
:1002500000F097FFA56004E0A068411EA16000D2F5
:10026000FEE7D149304601F041F80028F4D041467C
:10027000B046304600F0F2FFA560CB4EB61E04E05B
:10028000A068411EA16000D2FEE73146404601F061
:100290002DF80028F4D04946404600F0DFFFA56065
:1002A00004E0A068411EA16000D2FEE7314640464E
:1002B00001F01CF80028F4D05146404600F0CEFF73
:1002C000A56004E0A068411EA16000D2FEE73146AF
:1002D000404601F00BF80028F4D05946404600F0A3
:1002E000BDFFA560454604E0A068411EA16000D2A4
:1002F000FEE73146284600F0F9FF0028F4D02846F2
:10030000019900F0ABFFA760A84E04E0A068411E71
:10031000A16000D2FEE73146284600F0FAFF00282F
:10032000F4D02846009900F099FFA76004E0A26885
:10033000501EA06000D2FEE73146284600F0E9FFDB
:100340000028F4D00121284600F011FF0298BDE8F2
:10035000FE8F1FB50121880501F099F9904C2046C8
:1003600000F05EFE0020ADF804004BF6FF70ADF823
:1003700006003320ADF808002015ADF80A00000192
:10038000ADF80C008A4800900121204600F0C9FE1B
:100390006946204600F060FE1FBD2DE9F05F0D4666
:1003A000064600210846FFF71AFF42F21074204665
:1003B00000F03AFB01211920FFF711FF03218020F3
:1003C000FFF70DFF4EF222018120FFF708FF4FF4E7
:1003D000C1414FF48260FFF702FF4AF280073946BD
:1003E0004FF48360FFF7FBFE39464FF48460FFF75C
:1003F000F6FE4FF460414FF48560FFF7F0FE4DF6D6
:100400001A4140F24340FFF7EAFE66214FF496603E
:10041000FFF7E5FE4FF48B670B213846FFF7DFFE51
:10042000002140F21220FFF7DAFE002140F27110A5
:10043000FFF7D5FE0C2140F25E30FFF7D0FE002121
:100440004FF43570FFF7CBFE00218020FFF7C7FE89
:1004500048F208014FF4C970FFF7C1FE182140F2BD
:100460009310FFF7BCFE7D214FF4CA70FFF7B7FE73
:10047000082140F29510FFF7B2FE00214FF4CB7037
:10048000FFF7ADFE012140F29110FFF7A8FE2046D4
:1004900000F0CAFA40F2452140F20110FFF79FFE3A
:1004A0004FF481704FF4B068112E0BD006DC012E92
:1004B0000DD0022E6FD0032E04D107E1122E7DD075
:1004C000132E7CD01121FFF78AFE262103E00121A3
:1004D000FFF785FE27214046FFF781FE09213846B8
:1004E000FFF77DFE01214802FFF779FED5214FF489
:1004F0000470FFF774FE022140F28450FFF76FFE94
:10050000052140F28250FFF76AFE204600F08CFA87
:100510000121284801F092FA0121274801F08EFAC2
:10052000204600F081FA41F21004214640F2875043
:10053000FFF755FE21464FF4B160FFF750FE03214F
:1005400040F29A50FFF74BFE032140F29950FFF71B
:1005500046FE202140F28550FFF741FE202140F267
:100560008650FFF73CFE30214FF4D260FFF737FE94
:10057000802140F29160FFF732FE31214FF4D360C9
:10058000FFF72DFE802140F29960FFF728FE302111
:100590004FF4D06014E08FE000000020C0E0FFFFC7
:1005A0000058004001000300820007000400001012
:1005B000A0860100003800400034004077E080E071
:1005C000FFF70DFE802140F28160FFF708FE312128
:1005D0004FF4D160FFF703FE802140F28960FFF7FE
:1005E000FEFD60214FF4F060FFF7F9FD61214FF44B
:1005F000F160FFF7F4FD802140F28170FFF7EFFD1D
:10060000802140F28970FFF7EAFD03214FF46C600E
:10061000FFF7E5FD4FF29E04214640F6C160FFF76B
:10062000DEFD032140F6C460FFF7D9FD214640F608
:10063000C560FFF7D4FD802140F60110FFF7CFFD24
:10064000802140F60910FFF7CAFD40F2A7164FF4CB
:10065000106040F608174FF440784FF42074002DD6
:1006600074D042F290294FF4487A40F2213B012D98
:1006700001D0022D2FD01421FFF7B1FD15213846EE
:10068000FFF7ADFD30214046FFF7A9FD4946504632
:10069000FFF7A5FD21465846FFF7A1FD90214FF435
:1006A0004970FFF79CFD214640F2253031E01221D0
:1006B000FFF795FD28210EE70221FFF790FD292184
:1006C00009E71321FFF78BFD2A2104E70321FFF738
:1006D00086FD2B21FFE61221FFF781FD132138460D
:1006E000FFF77DFD0C214046FFF779FD4FF4525195
:1006F0004FF44670FFF773FD214640F21D30FFF7BF
:100700006EFD214640F21930FFF769FD314640F297
:100710001920FFF764FD214640F21940FFF75FFD05
:10072000214640F21D40FFF75AFD214640F211409C
:10073000FFF755FD214640F21540FFF750FDBDE89B
:10074000F05F0F214FF4806049E5FFE71021FFF7CC
:1007500046FD11213846FFF742FD03214046FFF7D1
:100760003EFD4FF42A514FF44470FFF738FD8021CD
:100770004FF44570FFF733FD214640F21130FFF78B
:100780002EFD214640F21530FFF729FD31464FF48A
:100790000670BEE72DE9F74F96B0934601210E2073
:1007A00000F057FF4FF4084001250F908DF840509E
:1007B00000248DF8424002208DF84100DFF8789245
:1007C0008DF843400FA9484600F07AFB4FF4406093
:1007D0000F9002208DF840008DF841008DF84250B6
:1007E0008DF843400FA9954800F06AFB04220A21C6
:1007F000924800F0EEFB04220B21904800F0E9FB48
:1008000002208DF840008DF841004FF440508DF8E3
:1008100042400F908DF843400FA9884800F050FBEC
:100820000C20874E0F900FA9304600F049FB05229F
:100830000C21824800F0CDFB05220D217F4800F0FD
:10084000C8FB05220321304600F0C3FB062202212B
:10085000304600F0BEFB7B4E0021304601F0EEF842
:10086000794F0021384601F0E9F80121C80300F072
:100870000EFF0121880300F00AFF0820ADF84A406E
:10088000ADF854004FF48078ADF84C40ADF8488096
:1008900012A9304601F054F812A9384601F00BF9BC
:1008A00042F2107A5746504600F0BEF8E902484638
:1008B00000F080FBFFF74DFDDDE91601FFF76DFD50
:1008C000384600F0B1F85FEA0B004FF024074FF410
:1008D000806902D0BBF1010F20D0484600F086FFAE
:1008E0008DF844708DF845508DF846408DF847508E
:1008F00011A800F080FF504600F096F80421304621
:1009000001F02CF90421504801F028F9012260215E
:10091000304601F010F919B0BDE8F08F012148050B
:1009200000F097FE0021494800F08FF9474800F099
:10093000CBF844480B940C304F46019000944FF490
:1009400000390394CDE909894148CDE90484029036
:100950004FF0030ACDE90CA4454606AA4FF4005B0C
:100960004FF400680E9482E880096946374800F029
:1009700033F900223749354800F08AF9012133481C
:1009800000F091F94FF080600090402003902E48D5
:100990000B940C300190CDE90959CDE904540E9423
:1009A0002D48CDF830A0029006AA284C82E8800994
:1009B00018346946204600F00FF9002227492046E6
:1009C00000F066F90121204600F06DF901221021A6
:1009D0001E4800F0AFF901221021204600F0AAF9CC
:1009E00001221146304601F09EF80121174800F01F
:1009F0002CF901220221144801F095F8012120462A
:100A000000F023F90E2000F004F80F2000F001F8A8
:100A100081E700F01F02012191404009800000F1B0
:100A2000E020C0F80011704701B5009801E0401EB9
:100A300000900028FBD108BD000C024000040240D9
:100A40000008024000380040003400405860024076
:100A5000300000203004002030020020300600204A
:100A600070B54FF40041154800F0AFFA144C042162
:100A7000204601F06CF8134D012820460ED001F0FD
:100A800037F804B20221284601F061F80128F9D1B3
:100A9000A1B22846BDE8704001F02CB801F028F85A
:100AA00004B20221284601F052F80128F9D1EFE7FB
:100AB000002202210320FFF76DFEFEE7000C02403A
:100AC00000380040003400402DE9F043016821F077
:100AD000010101600021016041608160C16001612C
:100AE00021214161B849B84A3D251039904202D1CF
:100AF0008D60BDE8F083B44A4FF4746618329042BA
:100B000001D18E60F5E7B04A4FF47417303290424D
:100B100001D18F60EDE7AC4A4FF0746C48329042DF
:100B200002D1C1F808C0E4E7A74BA84A6033984255
:100B300001D1CA60DDE7A44CA54B7834A04201D1B5
:100B4000CB60D6E7DFF88082A24C08F190084045E0
:100B500001D1CC60CDE7DFF870824FF03D5908F14C
:100B6000A808404502D1C1F80C90C2E79A49DFF8C5
:100B700068820839404501D10D60BAE7964D1835B5
:100B8000A84201D10E60B4E7934D3035A84201D19F
:100B90000F60AEE7904D4835A84202D1C1F800C0C1
:100BA000A7E78D4D8C496035091FA84201D10A6025
:100BB0009FE7894A7832904201D10B6099E7864AD3
:100BC0009032904201D10C6093E7834AA832904260
:100BD0008FD1C1F800908CE730B503687F4ACC68AC
:100BE00013400A682243D1E905452C432243CC69CE
:100BF00022430C6A22434C6A22438C6A22434C6B88
:100C000022438C6B22431A430260426922F007039D
:100C1000D1E90B2422431A4342610A6942604A68BF
:100C200082608968C16030BD0021016041608160DF
:100C3000C160016141618161C161016241628162A2
:100C4000C16201634163816370470029016802D07A
:100C500041F0010101E021F001010160704700292C
:100C6000016802D041F4004101E021F4004101603B
:100C700070470029016802D041F0200101E021F015
:100C800020010160704741607047406880B2704742
:100C9000002A026802D042F4002201E022F400227D
:100CA0000260016170470029016802D041F480218F
:100CB00001E021F48021016070470AB101617047B1
:100CC000C1607047014600200968090300D5012072
:100CD0007047014600200968C90700D0012070470D
:100CE000406900F03800704702463B4B00209A42B2
:100CF00002D2354A103A01E0374A103A8B0001D54A
:100D0000526800E01268364B1A400A4200D00120B7
:100D10007047314A904202D22B48103801E02E48E9
:100D200010382F4A8B0001EA020101D5C1607047DB
:100D3000816070470B0607D5436912B143F0800309
:100D400001E023F080034361802908D0002A026873
:100D500001F01E0101D00A4300E08A43026070479F
:100D600030B51D4A0024904202D2174B103B01E0DF
:100D7000194B103B1B4A114205D01E2202EAD12515
:100D800002682A4002E0406900F08002880001D534
:100D9000586800E01868124B1840084201D002B1B0
:100DA0000124204630BD0C4A904202D20648103839
:100DB00001E0094810380A4A8B0001EA020101D516
:100DC000C160704781607047106002403D000020A4
:100DD000400F002000003D20106402403F801CF0C6
:100DE0007D0F7D0F3C0F3C0F824910B5884206D124
:100DF0000121084600F05FFC002101205BE07E49F4
:100E0000884206D10121022000F055FC0021022079
:100E100051E07A49884206D10121042000F04BFCC0
:100E20000021042047E07649884206D101210820AC
:100E300000F041FC002108203DE07249884206D1C3
:100E40000121102000F037FC0021102033E06E4912
:100E5000884206D10121202000F02DFC0021202015
:100E600029E06A49884206D10121402000F023FC94
:100E7000002140201FE06649884206D101218020E0
:100E800000F019FC0021802015E06249884202D15F
:100E9000012184150AE06049884202D101214415EC
:100EA00004E05E4988420AD101210415204600F081
:100EB00002FC00212046BDE8104000F0FCBB10BD44
:100EC000F0B50023012403270D6804FA03F215404E
:100ED000954242D1D0F800C05E0007FA06F52CEA30
:100EE000050CC0F800C091F804C0D0F800E00CFA7E
:100EF00006FC4CEA0E0CC0F800C091F804C0BCF12E
:100F0000010F02D0BCF1020F1FD1D0F808C02CEAAB
:100F1000050CC0F808C091F805C0D0F808E00CFA3C
:100F200006FC4CEA0E0CC0F808C0D0F804C02CEA4D
:100F3000020CC0F804C0426891F806C00CFA03FC29
:100F40001FFA8CFC42EA0C024260C268AA43C260EB
:100F5000CA79C568B2402A43C2605B1C102BB3D368
:100F6000F0BD4FF6FF710160002101714171817187
:100F7000C171704708B541F480320092C261C1610D
:100F80000099C161C169C069009008BD0246002096
:100F900012690A4200D001207047006980B2704790
:100FA0000246002052690A4200D001207047406981
:100FB00080B2704701837047418370470AB1018353
:100FC0007047418370474161704742694A404261BE
:100FD00070474B07DB0E9A40C90810B500EB810043
:100FE000016A0F249C40A1430162016A114301621E
:100FF00010BD000000000240000402400008024052
:10100000000C024000100240001402400018024090
:10101000001C024000200240002402400028024040
:10102000D24910B5884202D101214C050AE0D049CD
:10103000884202D101218C0504E0CE4988420AD1C0
:101040000121CC05204600F054FB2046BDE81040AD
:10105000002100F04EBB10BD7FB5044680880D46D0
:1010600020F03F06684600F05FFAC3490298B0FBE3
:10107000F1F189B20E43A680228822F0010222807B
:10108000BE4B2A689A421BD85200B0FBF2F080B2E5
:10109000042800D20420491C2184A083208840F029
:1010A0000100208021884FF6F5300140A8886A8928
:1010B000104308432080A8892989084320817FBDE7
:1010C000EB88A3F53F46FF3E0BD002EBC20303EBD8
:1010D0000212B0FBF2F080B240F48040020506D06C
:1010E00007E002EB4202B0FBF2F080B2F6E740F01C
:1010F00001004FF4967251434FF47A72B1FBF2F152
:1011000040F40040C7E741F288310160002181804E
:101110004BF6FF72C280018141814FF48041818191
:1011200070470029018802D041F0010101E021F05F
:101130000101018070470029818C02D021F010014B
:1011400001E041F0100181847047828C01F00F01B1
:1011500022F00F021143818470470029018802D0D8
:1011600041F4807101E021F4807101807047002911
:10117000018802D041F4007101E021F40071018086
:10118000704712B141F0010101E001F0FE0101825E
:1011900070470029018802D041F4806101E021F408
:1011A000806101807047828901F0FE0122F0FE0219
:1011B0001143818170470029818902D041F00101EA
:1011C00001E021F00101818170470029018802D0EE
:1011D00041F0400101E021F0400101807047002909
:1011E000018802D041F4004101E0C1F30E01018009
:1011F00070470029018803D021F0800101807047E9
:1012000041F08001FAE7B1F5804F818B02D021F4E3
:10121000804101E041F4804181837047B1F5006F66
:10122000018803D021F400610180704741F400611E
:10123000FAE7B1F5005F018803D021F40051018085
:10124000704741F40051FAE70029018802D041F0CB
:10125000100101E021F01001018070470182704708
:10126000008AC0B270470029018802D041F4805141
:1012700001E021F4805101807047B1F5006F0188D1
:1012800003D021F400610180704741F40061FAE766
:101290000029018802D041F0200101E021F0200165
:1012A00001807047008B000A70470029818802D0B6
:1012B00041F4006101E021F4006181807047002960
:1012C000818802D041F4805101E021F48051818075
:1012D000704708B508440090008808BD002A82883D
:1012E00001D00A4300E08A43828070470246002012
:1012F000938A128B43EA024323F07F42914300D149
:1013000001207047818A008B41EA004121F07F4033
:1013100070470CB50246002000920A0F21F07F4171
:10132000019202D0009A143202E0009A090C18329D
:10133000009212680A4200D001200CBDC94381828C
:10134000704710B5034600209A884FF4E06404EA21
:1013500011449B8A224021F07F410B4202D0002A97
:1013600000D0012010BDC943818270470054004065
:1013700000580040005C004040420F00A086010081
:10138000F848016841F001010160F64A0021083285
:1013900011600268F44B1A400260031DF34A1A60A0
:1013A000F04BF34A84331A60F04A103A1B1D1A605E
:1013B000026822F480220260EA480C300160181DA5
:1013C00001607047E7490022891C0A700870704765
:1013D00002460020510901290CD002290CD0E14914
:1013E0007431096802F01F02012393400B4200D0C0
:1013F00001207047DB49F4E7DA497031F1E718B5AD
:1014000000204FF4A04400903120FFF7E1FF009945
:10141000491C0091A14201D00028F5D03120FFF7EE
:10142000D7FF002800D0012018BDCE490A6822F05D
:10143000F80242EAC00008607047CE490860704771
:10144000C849002270310A700A70012802D00428AD
:1014500001D1052008707047C7490860704741EA0C
:1014600082115A0810B5C54B029C03EB024211438E
:10147000014341EA0460BB49091D086010BDBD4934
:1014800008667047800140EA0170B64984310860FF
:101490007047B84988667047800140EA0160B149E9
:1014A00040EA0270883108607047B24908677047A7
:1014B000B049C8647047AB4A08321368084323F048
:1014C000EC63184310607047A64A0832136808435B
:1014D00023F07843184310607047A24A083211681D
:1014E00021F003010143116070479E4808300068F5
:1014F00000F00C0070479B4A0832116821F0F0019F
:10150000014311607047974A0832116821F4E05195
:10151000014311607047934908310A6822F4604220
:1015200042EAC0000860704770B58E4A0832116800
:10153000934C11F00C0104D0924E042903D00829D9
:1015400003D004601BE0066019E08649091D0B68A2
:10155000C3F380550B6803F03F0315B1B6FBF3F3FB
:1015600001E0B4FBF3F30C680968C4F38814634327
:10157000C1F30141491C4900B3FBF1F1016011685D
:101580000F2303EA1111804B5C5C0168E14041606C
:101590001468072505EA94241C5D21FA04F484608C
:1015A000126805EA52329A5CD140C16070BDC0F346
:1015B0000121032908D16B4A0832116821F4F8137C
:1015C0007249014019431160664970310A68C0F3DD
:1015D0000B0002430A60704767494439086070474E
:1015E00065494039086070476249C1F85C0170473D
:1015F0005C4A8C321168401E21F01F0101431160CA
:10160000704758498C310A686FF0FF0322F4F85292
:1016100003EB0020104308607047524A8C32116877
:1016200021F440110143116070474E4A8C32116819
:1016300021F440010143116070474A4A8C3211681D
:1016400021F440310143116070475149C1F8E00174
:101650007047444A30320029116801D0014300E04C
:101660008143116070473F4A34320029116801D02C
:10167000014300E08143116070473A4A3832002943
:10168000116801D0014300E0814311607047354A81
:1016900040320029116801D0014300E0814311600C
:1016A0007047304A44320029116801D0014300E0FC
:1016B0008143116070472B4A10320029116801D014
:1016C000014300E0814311607047264A143200292B
:1016D000116801D0014300E0814311607047214A45
:1016E00018320029116801D0014300E081431160E4
:1016F00070471C4A20320029116801D0014300E0E4
:10170000814311607047174A24320029116801D0C3
:10171000014300E0814311607047124A50320029B2
:10172000116801D0014300E08143116070470D4A08
:1017300054320029116801D0014300E08143116057
:101740007047084A58320029116801D0014300E06F
:10175000814311607047034A60320029116819D033
:10176000014318E000380240FFFFF6EA1030002481
:101770000030002000004742800E47420000FFFF7B
:101780000024F40000B4C4040C000020FFFCFF0F90
:1017900000104742814311607047134A00291168C5
:1017A00001D0014300E08143116070470E4A573A6F
:1017B0000029117801D0014300E081431170704786
:1017C00009481030016841F080710160704701469E
:1017D000054A0020583A12680A4200D0012070479A
:1017E0000149563908707047643802402849084357
:1017F00028490860704730B50F22C478017801236A
:10180000FCB1244C246801F1E02104F4E064C4F547
:10181000E064C4F30724C4F10405E2404478AC401A
:101820008578154025432A0181F80024007800F0CE
:101830001F018B404009800000F1E020C0F800311A
:1018400030BD01F01F0083404809800000F1E02016
:10185000C0F8803130BD104A114001430D48001FCF
:10186000016070470B4A121D0029116801D0014325
:1018700000E08143116070474FF0E02104280869BF
:1018800003D020F004000861704740F00400FAE73C
:101890000000FA050CED00E080FFFF1FBF4910B506
:1018A000884202D10121841424E0BD49884202D13A
:1018B0000121041404E0BB4988420AD10121C41368
:1018C0002046FFF716FF2046BDE810400021FFF735
:1018D00010BFB549884202D1012144140AE0B3493E
:1018E000884202D101210C0504E0B14988420AD1A5
:1018F00001214C052046FFF706FF2046BDE81040B9
:101900000021FFF700BF10BD30B502884C8802F4FB
:1019100041530A88CD8822438C882C4322430C896A
:1019200022434C8922438C892243CC8922431A4387
:101930000280828B22F400628283098A018230BD98
:10194000F0B502220023858B01244FF2400635407A
:1019500085830284858B8E68022E3ED08A8802B1F0
:101960000224944A13681B0203D5136823F400036E
:101970001360904A7C3213681268C3F388138D4E4B
:10198000C2F30272361F36688B4F06F03F06B7FB74
:10199000F6F65E43B6FBF2F2CB88B3F5007F2CD0AF
:1019A0006301B2FBF3F200BF02EB82028B685200CC
:1019B000B2FBF3F2521D92B20A23B2FBF3F202F031
:1019C0000103D21A4FF6FF74C2F34F0204EA032355
:1019D000941EFE2C01D302220023CC881A43144308
:1019E00004840A884B881A438B8889890B431A43DD
:1019F0002A4342F400618183F0BD120AD4E700213A
:101A0000018041808180C180018141818181C181CA
:101A10000721018270470021018041808180C180BF
:101A200002228260818170470029018802D041F042
:101A3000400101E021F04001018070470029818BC5
:101A400002D041F4806101E021F48061818370471C
:101A5000028822F40062028002880A4302807047F2
:101A6000B1F5804F018803D021F480410180704797
:101A700041F48041FAE7A1F57E420188FF3A02D0A5
:101A800041F4807101E021F48071018070470029E8
:101A9000818802D041F0040101E021F0040181803D
:101AA00070470029818802D041F0100101E021F047
:101AB00010018180704730B5838B00224FF24004C3
:101AC0002340838302230384848B0B884FF4807527
:101AD000B3F5007F00D003B92A464B888D888989E9
:101AE0002B4311430B43234343F40061818330BDF7
:101AF00080897047818170470029018802D041F4B4
:101B0000005101E021F4005101807047018841F447
:101B1000805101807047012901D0008B7047808A75
:101B20007047008A7047002A828801D00A4300E08B
:101B30008A4382807047090901238B40002A8288EA
:101B400099B201D00A4300E08A438280704702467E
:101B5000002012890A4200D001207047C943018148
:101B6000704710B501F00F040122034602FA04F495
:101B7000002009098A4091B29A88A4B20A401989C2
:101B8000214202D0002A00D0012010BD01F00F0236
:101B900001219140C943018170470000003001409C
:101BA00000380040003C004000340140005001403B
:101BB000005401400838024000B4C404064880477D
:101BC00006480047FEE7FEE7FEE7FEE7FEE7FEE722
:101BD000FEE7FEE7FEE7FEE7E11B000889010008DB
:101BE0002B48016841F4700101602A48016841F006
:101BF00001010160274A0021083211600268264B6A
:101C00001A400260031D254A1A60026822F48022ED
:101C1000026020480C3001601D4958068039086078
:101C2000704770B51B4C083420681D4A10F00C0139
:101C30001C4804D01C4D042903D0082903D002609D
:101C40001BE0056019E01349091D0B68C3F38056BA
:101C50000B6803F03F0316B1B5FBF3F201E0B2FBF2
:101C6000F3F20B680968C3F388135A43C1F30141C7
:101C7000491C4900B2FBF1F101602168094AC1F336
:101C80000311121D515C0268CA40026070BD000061
:101C900088ED00E000380240FFFFF6FE103000241F
:101CA0000024F4001C00002000B4C404064C074DBE
:101CB00006E0E06840F0010394E80700984710341C
:101CC000AC42F6D3FEF764FAF01C0008101D0008C1
:101CD00002E008C8121F08C1002AFAD170477047F5
:101CE000002001E001C1121F002AFBD17047000053
:101CF000101D00080000002030000000D01C00086B
:101D0000401D000830000020000C0000E01C00080E
:101D1000FFFF00000100000000C0120000000000F2
:101D20000102030401020304060708090024F40069
:101D3000000000000000000001020304060708097B
:040000050800018965
:00000001FF
